{
  "contractName": "IotSecurity",
  "abi": [
    {
      "constant": true,
      "inputs": [],
      "name": "user_permission",
      "outputs": [
        {
          "name": "",
          "type": "string"
        }
      ],
      "payable": false,
      "stateMutability": "view",
      "type": "function"
    },
    {
      "constant": true,
      "inputs": [],
      "name": "user_arr_length",
      "outputs": [
        {
          "name": "",
          "type": "uint256"
        }
      ],
      "payable": false,
      "stateMutability": "view",
      "type": "function"
    },
    {
      "constant": true,
      "inputs": [
        {
          "name": "",
          "type": "uint256"
        }
      ],
      "name": "user_arr",
      "outputs": [
        {
          "name": "",
          "type": "address"
        }
      ],
      "payable": false,
      "stateMutability": "view",
      "type": "function"
    },
    {
      "anonymous": false,
      "inputs": [
        {
          "indexed": false,
          "name": "permission",
          "type": "string"
        }
      ],
      "name": "e_Permission",
      "type": "event"
    },
    {
      "constant": false,
      "inputs": [
        {
          "name": "permission",
          "type": "string"
        },
        {
          "name": "deviceAddress",
          "type": "address"
        },
        {
          "name": "userAddress",
          "type": "address"
        }
      ],
      "name": "addUsersToDevice",
      "outputs": [],
      "payable": false,
      "stateMutability": "nonpayable",
      "type": "function"
    },
    {
      "constant": false,
      "inputs": [
        {
          "name": "devAddress",
          "type": "address"
        }
      ],
      "name": "getUsersFromDevice",
      "outputs": [
        {
          "name": "",
          "type": "address[]"
        }
      ],
      "payable": false,
      "stateMutability": "nonpayable",
      "type": "function"
    },
    {
      "constant": false,
      "inputs": [
        {
          "name": "devAddress",
          "type": "address"
        },
        {
          "name": "userAddress",
          "type": "address"
        }
      ],
      "name": "getUserPermissionsForaDevice",
      "outputs": [
        {
          "name": "",
          "type": "string"
        }
      ],
      "payable": false,
      "stateMutability": "nonpayable",
      "type": "function"
    },
    {
      "constant": false,
      "inputs": [
        {
          "name": "devAddress",
          "type": "address"
        },
        {
          "name": "userAddress",
          "type": "address"
        },
        {
          "name": "permission",
          "type": "string"
        }
      ],
      "name": "changePermission",
      "outputs": [],
      "payable": false,
      "stateMutability": "nonpayable",
      "type": "function"
    },
    {
      "constant": false,
      "inputs": [],
      "name": "getUsersDevices",
      "outputs": [
        {
          "name": "",
          "type": "address[]"
        }
      ],
      "payable": false,
      "stateMutability": "nonpayable",
      "type": "function"
    },
    {
      "constant": false,
      "inputs": [
        {
          "name": "newDevice",
          "type": "address"
        }
      ],
      "name": "addOwner",
      "outputs": [],
      "payable": false,
      "stateMutability": "nonpayable",
      "type": "function"
    },
    {
      "constant": true,
      "inputs": [
        {
          "name": "deviceAddr",
          "type": "address"
        }
      ],
      "name": "viewOwner",
      "outputs": [
        {
          "name": "",
          "type": "address"
        }
      ],
      "payable": false,
      "stateMutability": "view",
      "type": "function"
    },
    {
      "constant": false,
      "inputs": [
        {
          "name": "reqPermission",
          "type": "string"
        },
        {
          "name": "deviceAddr",
          "type": "address"
        },
        {
          "name": "userAddr",
          "type": "address"
        }
      ],
      "name": "verifyTransaction",
      "outputs": [],
      "payable": false,
      "stateMutability": "nonpayable",
      "type": "function"
    }
  ],
  "bytecode": "0x608060405260006002556040805190810160405280600d81526020017f4e6f7420417661696c61626c650000000000000000000000000000000000000081525060039080519060200190620000569291906200006b565b503480156200006457600080fd5b506200011a565b828054600181600116156101000203166002900490600052602060002090601f016020900481019282601f10620000ae57805160ff1916838001178555620000df565b82800160010185558215620000df579182015b82811115620000de578251825591602001919060010190620000c1565b5b509050620000ee9190620000f2565b5090565b6200011791905b8082111562000113576000816000905550600101620000f9565b5090565b90565b611d14806200012a6000396000f3006080604052600436106100af576000357c0100000000000000000000000000000000000000000000000000000000900463ffffffff16806323e4f1be146100b45780634517d99b1461015d578063497f08b21461023957806349f5db24146102a55780637065cb4814610335578063939e7d2814610378578063a2df9072146103a3578063c94091481461044c578063d175a0a7146104cf578063e024412214610578578063e99c9bb2146105e5575b600080fd5b3480156100c057600080fd5b5061015b600480360381019080803573ffffffffffffffffffffffffffffffffffffffff169060200190929190803573ffffffffffffffffffffffffffffffffffffffff169060200190929190803590602001908201803590602001908080601f016020809104026020016040519081016040528093929190818152602001838380828437820191505050505050919291929050505061067d565b005b34801561016957600080fd5b506101be600480360381019080803573ffffffffffffffffffffffffffffffffffffffff169060200190929190803573ffffffffffffffffffffffffffffffffffffffff1690602001909291905050506108ad565b6040518080602001828103825283818151815260200191508051906020019080838360005b838110156101fe5780820151818401526020810190506101e3565b50505050905090810190601f16801561022b5780820380516001836020036101000a031916815260200191505b509250505060405180910390f35b34801561024557600080fd5b5061024e610aef565b6040518080602001828103825283818151815260200191508051906020019060200280838360005b83811015610291578082015181840152602081019050610276565b505050509050019250505060405180910390f35b3480156102b157600080fd5b506102ba610d3b565b6040518080602001828103825283818151815260200191508051906020019080838360005b838110156102fa5780820151818401526020810190506102df565b50505050905090810190601f1680156103275780820380516001836020036101000a031916815260200191505b509250505060405180910390f35b34801561034157600080fd5b50610376600480360381019080803573ffffffffffffffffffffffffffffffffffffffff169060200190929190505050610dd9565b005b34801561038457600080fd5b5061038d6111bf565b6040518082815260200191505060405180910390f35b3480156103af57600080fd5b5061044a600480360381019080803590602001908201803590602001908080601f0160208091040260200160405190810160405280939291908181526020018383808284378201915050505050509192919290803573ffffffffffffffffffffffffffffffffffffffff169060200190929190803573ffffffffffffffffffffffffffffffffffffffff1690602001909291905050506111c5565b005b34801561045857600080fd5b5061048d600480360381019080803573ffffffffffffffffffffffffffffffffffffffff169060200190929190505050611437565b604051808273ffffffffffffffffffffffffffffffffffffffff1673ffffffffffffffffffffffffffffffffffffffff16815260200191505060405180910390f35b3480156104db57600080fd5b50610576600480360381019080803590602001908201803590602001908080601f0160208091040260200160405190810160405280939291908181526020018383808284378201915050505050509192919290803573ffffffffffffffffffffffffffffffffffffffff169060200190929190803573ffffffffffffffffffffffffffffffffffffffff1690602001909291905050506114a3565b005b34801561058457600080fd5b506105a3600480360381019080803590602001909291905050506117c9565b604051808273ffffffffffffffffffffffffffffffffffffffff1673ffffffffffffffffffffffffffffffffffffffff16815260200191505060405180910390f35b3480156105f157600080fd5b50610626600480360381019080803573ffffffffffffffffffffffffffffffffffffffff169060200190929190505050611807565b6040518080602001828103825283818151815260200191508051906020019060200280838360005b8381101561066957808201518184015260208101905061064e565b505050509050019250505060405180910390f35b60008090505b600460008573ffffffffffffffffffffffffffffffffffffffff1673ffffffffffffffffffffffffffffffffffffffff168152602001908152602001600020600101805490508110156108a7578273ffffffffffffffffffffffffffffffffffffffff16600460008673ffffffffffffffffffffffffffffffffffffffff1673ffffffffffffffffffffffffffffffffffffffff1681526020019081526020016000206001018281548110151561073657fe5b906000526020600020906003020160000160009054906101000a900473ffffffffffffffffffffffffffffffffffffffff1673ffffffffffffffffffffffffffffffffffffffff16141561089a5781600460008673ffffffffffffffffffffffffffffffffffffffff1673ffffffffffffffffffffffffffffffffffffffff168152602001908152602001600020600101828154811015156107d457fe5b906000526020600020906003020160020190805190602001906107f8929190611ab3565b507f2b68a98a62bf0ac0fbbceb7d71d471f839916841f7b8d45844dbe7a986450231826040518080602001828103825283818151815260200191508051906020019080838360005b8381101561085b578082015181840152602081019050610840565b50505050905090810190601f1680156108885780820380516001836020036101000a031916815260200191505b509250505060405180910390a16108a7565b8080600101915050610683565b50505050565b606060008090505b600460008573ffffffffffffffffffffffffffffffffffffffff1673ffffffffffffffffffffffffffffffffffffffff16815260200190815260200160002060010180549050811015610ae7578273ffffffffffffffffffffffffffffffffffffffff16600460008673ffffffffffffffffffffffffffffffffffffffff1673ffffffffffffffffffffffffffffffffffffffff1681526020019081526020016000206001018281548110151561096857fe5b906000526020600020906003020160000160009054906101000a900473ffffffffffffffffffffffffffffffffffffffff1673ffffffffffffffffffffffffffffffffffffffff161415610ada57600460008573ffffffffffffffffffffffffffffffffffffffff1673ffffffffffffffffffffffffffffffffffffffff16815260200190815260200160002060010181815481101515610a0557fe5b906000526020600020906003020160020160039080546001816001161561010002031660029004610a37929190611b33565b5060038054600181600116156101000203166002900480601f016020809104026020016040519081016040528092919081815260200182805460018160011615610100020316600290048015610ace5780601f10610aa357610100808354040283529160200191610ace565b820191906000526020600020905b815481529060010190602001808311610ab157829003601f168201915b50505050509150610ae8565b80806001019150506108b5565b5b5092915050565b6060600060016000610b019190611bba565b60006002819055506000600560003373ffffffffffffffffffffffffffffffffffffffff1673ffffffffffffffffffffffffffffffffffffffff168152602001908152602001600020600001805490501115610d3657600090505b600560003373ffffffffffffffffffffffffffffffffffffffff1673ffffffffffffffffffffffffffffffffffffffff16815260200190815260200160002060000180549050811015610ca8576001600560003373ffffffffffffffffffffffffffffffffffffffff1673ffffffffffffffffffffffffffffffffffffffff16815260200190815260200160002060000182815481101515610bfa57fe5b906000526020600020906002020160000160009054906101000a900473ffffffffffffffffffffffffffffffffffffffff1690806001815401808255809150509060018203906000526020600020016000909192909190916101000a81548173ffffffffffffffffffffffffffffffffffffffff021916908373ffffffffffffffffffffffffffffffffffffffff160217905550506001805490506002819055508080600101915050610b5c565b6001805480602002602001604051908101604052809291908181526020018280548015610d2a57602002820191906000526020600020905b8160009054906101000a900473ffffffffffffffffffffffffffffffffffffffff1673ffffffffffffffffffffffffffffffffffffffff1681526020019060010190808311610ce0575b50505050509150610d37565b5b5090565b60038054600181600116156101000203166002900480601f016020809104026020016040519081016040528092919081815260200182805460018160011615610100020316600290048015610dd15780601f10610da657610100808354040283529160200191610dd1565b820191906000526020600020905b815481529060010190602001808311610db457829003601f168201915b505050505081565b610de1611bdb565b610de9611c13565b826000600460008373ffffffffffffffffffffffffffffffffffffffff1673ffffffffffffffffffffffffffffffffffffffff16815260200190815260200160002060000160009054906101000a900473ffffffffffffffffffffffffffffffffffffffff1673ffffffffffffffffffffffffffffffffffffffff16141515610e7157600080fd5b33600460008673ffffffffffffffffffffffffffffffffffffffff1673ffffffffffffffffffffffffffffffffffffffff16815260200190815260200160002060000160006101000a81548173ffffffffffffffffffffffffffffffffffffffff021916908373ffffffffffffffffffffffffffffffffffffffff1602179055506060604051908101604052803373ffffffffffffffffffffffffffffffffffffffff1681526020016040805190810160405280600481526020017f6e756c6c0000000000000000000000000000000000000000000000000000000081525081526020016040805190810160405280600a81526020017f526561642f5772697465000000000000000000000000000000000000000000008152508152509250600460008573ffffffffffffffffffffffffffffffffffffffff1673ffffffffffffffffffffffffffffffffffffffff168152602001908152602001600020600101839080600181540180825580915050906001820390600052602060002090600302016000909192909190915060008201518160000160006101000a81548173ffffffffffffffffffffffffffffffffffffffff021916908373ffffffffffffffffffffffffffffffffffffffff1602179055506020820151816001019080519060200190611061929190611c43565b50604082015181600201908051906020019061107e929190611c43565b5050505060408051908101604052808573ffffffffffffffffffffffffffffffffffffffff1681526020016040805190810160405280600a81526020017f526561642f5772697465000000000000000000000000000000000000000000008152508152509150600560003373ffffffffffffffffffffffffffffffffffffffff1673ffffffffffffffffffffffffffffffffffffffff168152602001908152602001600020600001829080600181540180825580915050906001820390600052602060002090600202016000909192909190915060008201518160000160006101000a81548173ffffffffffffffffffffffffffffffffffffffff021916908373ffffffffffffffffffffffffffffffffffffffff16021790555060208201518160010190805190602001906111b5929190611c43565b5050505050505050565b60025481565b60006060600091505b600460008573ffffffffffffffffffffffffffffffffffffffff1673ffffffffffffffffffffffffffffffffffffffff1681526020019081526020016000206001018054905082101561143057600460008573ffffffffffffffffffffffffffffffffffffffff1673ffffffffffffffffffffffffffffffffffffffff1681526020019081526020016000206001018281548110151561126a57fe5b90600052602060002090600302016002018054600181600116156101000203166002900480601f01602080910402602001604051908101604052809291908181526020018280546001816001161561010002031660029004801561130f5780601f106112e45761010080835404028352916020019161130f565b820191906000526020600020905b8154815290600101906020018083116112f257829003601f168201915b50505050509050846040518082805190602001908083835b60208310151561134c5780518252602082019150602081019050602083039250611327565b6001836020036101000a038019825116818451168082178552505050505050905001915050604051809103902060001916816040518082805190602001908083835b6020831015156113b3578051825260208201915060208101905060208303925061138e565b6001836020036101000a03801982511681845116808217855250505050505090500191505060405180910390206000191614156114095760016000806101000a81548160ff021916908315150217905550611430565b60008060006101000a81548160ff02191690831515021790555081806001019250506111ce565b5050505050565b6000600460008373ffffffffffffffffffffffffffffffffffffffff1673ffffffffffffffffffffffffffffffffffffffff16815260200190815260200160002060000160009054906101000a900473ffffffffffffffffffffffffffffffffffffffff169050919050565b6114ab611bdb565b6114b3611c13565b836000600460008373ffffffffffffffffffffffffffffffffffffffff1673ffffffffffffffffffffffffffffffffffffffff16815260200190815260200160002060000160009054906101000a900473ffffffffffffffffffffffffffffffffffffffff169050600160006115299190611bba565b8073ffffffffffffffffffffffffffffffffffffffff163373ffffffffffffffffffffffffffffffffffffffff1614151561156357600080fd5b6060604051908101604052808673ffffffffffffffffffffffffffffffffffffffff1681526020016040805190810160405280600481526020017f6e756c6c000000000000000000000000000000000000000000000000000000008152508152602001888152509350600460008773ffffffffffffffffffffffffffffffffffffffff1673ffffffffffffffffffffffffffffffffffffffff168152602001908152602001600020600101849080600181540180825580915050906001820390600052602060002090600302016000909192909190915060008201518160000160006101000a81548173ffffffffffffffffffffffffffffffffffffffff021916908373ffffffffffffffffffffffffffffffffffffffff160217905550602082015181600101908051906020019061169d929190611c43565b5060408201518160020190805190602001906116ba929190611c43565b5050505060408051908101604052808773ffffffffffffffffffffffffffffffffffffffff168152602001888152509250600560008673ffffffffffffffffffffffffffffffffffffffff1673ffffffffffffffffffffffffffffffffffffffff168152602001908152602001600020600001839080600181540180825580915050906001820390600052602060002090600202016000909192909190915060008201518160000160006101000a81548173ffffffffffffffffffffffffffffffffffffffff021916908373ffffffffffffffffffffffffffffffffffffffff16021790555060208201518160010190805190602001906117bc929190611c43565b5050505050505050505050565b6001818154811015156117d857fe5b906000526020600020016000915054906101000a900473ffffffffffffffffffffffffffffffffffffffff1681565b60606000826000600460008373ffffffffffffffffffffffffffffffffffffffff1673ffffffffffffffffffffffffffffffffffffffff16815260200190815260200160002060000160009054906101000a900473ffffffffffffffffffffffffffffffffffffffff169050600160006118819190611bba565b8073ffffffffffffffffffffffffffffffffffffffff163373ffffffffffffffffffffffffffffffffffffffff161415156118bb57600080fd5b600160006118c99190611bba565b6000600281905550600092505b600460008673ffffffffffffffffffffffffffffffffffffffff1673ffffffffffffffffffffffffffffffffffffffff16815260200190815260200160002060010180549050831015611a22576001600460008773ffffffffffffffffffffffffffffffffffffffff1673ffffffffffffffffffffffffffffffffffffffff1681526020019081526020016000206001018481548110151561197457fe5b906000526020600020906003020160000160009054906101000a900473ffffffffffffffffffffffffffffffffffffffff1690806001815401808255809150509060018203906000526020600020016000909192909190916101000a81548173ffffffffffffffffffffffffffffffffffffffff021916908373ffffffffffffffffffffffffffffffffffffffff1602179055505060018054905060028190555082806001019350506118d6565b6001805480602002602001604051908101604052809291908181526020018280548015611aa457602002820191906000526020600020905b8160009054906101000a900473ffffffffffffffffffffffffffffffffffffffff1673ffffffffffffffffffffffffffffffffffffffff1681526020019060010190808311611a5a575b50505050509350505050919050565b828054600181600116156101000203166002900490600052602060002090601f016020900481019282601f10611af457805160ff1916838001178555611b22565b82800160010185558215611b22579182015b82811115611b21578251825591602001919060010190611b06565b5b509050611b2f9190611cc3565b5090565b828054600181600116156101000203166002900490600052602060002090601f016020900481019282601f10611b6c5780548555611ba9565b82800160010185558215611ba957600052602060002091601f016020900482015b82811115611ba8578254825591600101919060010190611b8d565b5b509050611bb69190611cc3565b5090565b5080546000825590600052602060002090810190611bd89190611cc3565b50565b606060405190810160405280600073ffffffffffffffffffffffffffffffffffffffff16815260200160608152602001606081525090565b6040805190810160405280600073ffffffffffffffffffffffffffffffffffffffff168152602001606081525090565b828054600181600116156101000203166002900490600052602060002090601f016020900481019282601f10611c8457805160ff1916838001178555611cb2565b82800160010185558215611cb2579182015b82811115611cb1578251825591602001919060010190611c96565b5b509050611cbf9190611cc3565b5090565b611ce591905b80821115611ce1576000816000905550600101611cc9565b5090565b905600a165627a7a72305820c1c397606aefc5b7c979806277d59dc514aba5900c34261902cb8f51f93b12bb0029",
  "source": "pragma solidity ^0.4.24;\r\n\r\ncontract IotSecurity {\r\n    \r\n\r\n    bool access;\r\n    address [] public user_arr;\r\n    uint public user_arr_length = 0;\r\n    string public user_permission =\"Not Available\";\r\n\r\n    struct deviceUserInfo {\r\n        address user;\r\n        string data;\r\n        string permission;\r\n    }\r\n   \r\n    struct user_info {\r\n        address device;\r\n        string permission;\r\n    }\r\n    \r\n    struct user {\r\n        user_info[] users_devices;\r\n    }\r\n    \r\n    struct device {\r\n        address owner;\r\n        deviceUserInfo[] DeviceInfo;\r\n    }\r\n    \r\n    event e_Permission (string permission);\r\n    \r\n    mapping(address => device) devices;\r\n    \r\n    mapping(address => user) users;\r\n    \r\n    //check the owner of the device - there can be only one owner per device\r\n    modifier owner(address checkDevice){\r\n        address checkOwner;\r\n        checkOwner = devices[checkDevice].owner;\r\n        delete user_arr;\r\n        require(msg.sender == checkOwner);\r\n        _;\r\n    }\r\n    \r\n    //check if the device has an owner or a new device ( new device has the address of 0x00000000000000000000)\r\n    modifier firstUser(address dAddr){\r\n        require(devices[dAddr].owner == 0x00000000000000000000);\r\n        _;\r\n    }\r\n    \r\n    //owner can add users to his owned devices\r\n    function addUsersToDevice (string permission, address deviceAddress, address userAddress) public owner(deviceAddress){\r\n        deviceUserInfo memory obj = deviceUserInfo({\r\n            user: userAddress,\r\n            data: \"null\",\r\n            permission: permission\r\n        });\r\n        devices[deviceAddress].DeviceInfo.push(obj);\r\n\r\n        user_info memory obj2 = user_info({\r\n            device: deviceAddress,\r\n            permission: permission\r\n        });\r\n\r\n        users[userAddress].users_devices.push(obj2);\r\n    }\r\n\r\n    //owner can check all the users added to the device he owns\r\n    function getUsersFromDevice (address devAddress) public owner(devAddress) returns (address[]){\r\n        delete user_arr;\r\n        user_arr_length = 0;\r\n        for (uint i = 0 ; i < devices[devAddress].DeviceInfo.length ; i++){\r\n            user_arr.push(devices[devAddress].DeviceInfo[i].user);\r\n            user_arr_length = user_arr.length;\r\n        }\r\n        return user_arr;\r\n    }\r\n    \r\n    // //owner can check permission for a given user and device\r\n    function getUserPermissionsForaDevice (address devAddress, address userAddress) public returns (string){\r\n        for (uint i = 0 ; i < devices[devAddress].DeviceInfo.length ; i++){\r\n            if (devices[devAddress].DeviceInfo[i].user == userAddress){\r\n                user_permission = devices[devAddress].DeviceInfo[i].permission;\r\n                return user_permission;\r\n            }\r\n        }\r\n    }\r\n   \r\n    \r\n    function changePermission (address devAddress, address userAddress, string permission) public {\r\n        for (uint i = 0 ; i < devices[devAddress].DeviceInfo.length ; i++){\r\n            if (devices[devAddress].DeviceInfo[i].user == userAddress){\r\n                devices[devAddress].DeviceInfo[i].permission = permission;\r\n                emit e_Permission(permission);\r\n                break;\r\n            }\r\n        }\r\n    }\r\n    \r\n\r\n //check all the available devices for a given account\r\n    function getUsersDevices() public returns (address[]){\r\n        delete user_arr;\r\n        user_arr_length = 0;\r\n        if(users[msg.sender].users_devices.length>0){\r\n            for (uint i = 0; i < users[msg.sender].users_devices.length; i++){\r\n                user_arr.push(users[msg.sender].users_devices[i].device);\r\n                user_arr_length = user_arr.length;\r\n            }\r\n        return user_arr;\r\n        }\r\n    }\r\n    \r\n\r\n    //add the owner of the device \r\n    function addOwner(address newDevice) public firstUser(newDevice){\r\n        devices[newDevice].owner = msg.sender;\r\n        deviceUserInfo memory obj = deviceUserInfo({\r\n            user: msg.sender,\r\n            data: \"null\",\r\n            permission: \"Read/Write\"\r\n        });\r\n        devices[newDevice].DeviceInfo.push(obj);\r\n\r\n        user_info memory obj2 = user_info({\r\n            device: newDevice,\r\n            permission: \"Read/Write\"\r\n        });\r\n\r\n        users[msg.sender].users_devices.push(obj2);\r\n    }\r\n    \r\n    //view the owner of the device\r\n    function viewOwner(address deviceAddr) public view returns (address){\r\n        return (devices[deviceAddr].owner);\r\n    }\r\n    \r\n    function verifyTransaction(string reqPermission, address deviceAddr, address userAddr) public{\r\n        \r\n        for(uint i = 0; i<devices[deviceAddr].DeviceInfo.length; i++){\r\n\r\n            string memory permission = devices[deviceAddr].DeviceInfo[i].permission;\r\n        \r\n            if (  keccak256(permission) == keccak256(reqPermission) ){\r\n                \r\n               access = true;\r\n                break;\r\n            }\r\n            access = false;\r\n        }   \r\n    }\r\n    \r\n}",
  "sourcePath": "E:\\CDAP\\solidity\\IOT_SECURITY_BLOCKCHAIN\\contracts\\IotSecurity.sol",
  "compiler": {
    "name": "solc",
    "version": "0.4.24+commit.e67f0147.Emscripten.clang"
  },
  "schemaVersion": "2.0.0",
  "updatedAt": "2018-06-24T16:55:03.754Z"
}