{
  "contractName": "IotSecurity",
  "abi": [
    {
      "constant": true,
      "inputs": [],
      "name": "user_permission",
      "outputs": [
        {
          "name": "",
          "type": "string"
        }
      ],
      "payable": false,
      "stateMutability": "view",
      "type": "function"
    },
    {
      "constant": true,
      "inputs": [
        {
          "name": "",
          "type": "uint256"
        }
      ],
      "name": "user_arr",
      "outputs": [
        {
          "name": "",
          "type": "address"
        }
      ],
      "payable": false,
      "stateMutability": "view",
      "type": "function"
    },
    {
      "anonymous": false,
      "inputs": [
        {
          "indexed": false,
          "name": "permission",
          "type": "string"
        }
      ],
      "name": "e_Permission",
      "type": "event"
    },
    {
      "constant": false,
      "inputs": [
        {
          "name": "permission",
          "type": "string"
        },
        {
          "name": "deviceAddress",
          "type": "address"
        },
        {
          "name": "userAddress",
          "type": "address"
        }
      ],
      "name": "addUsersToDevice",
      "outputs": [],
      "payable": false,
      "stateMutability": "nonpayable",
      "type": "function"
    },
    {
      "constant": false,
      "inputs": [
        {
          "name": "devAddress",
          "type": "address"
        }
      ],
      "name": "getUsersFromDevice",
      "outputs": [],
      "payable": false,
      "stateMutability": "nonpayable",
      "type": "function"
    },
    {
      "constant": false,
      "inputs": [
        {
          "name": "devAddress",
          "type": "address"
        },
        {
          "name": "userAddress",
          "type": "address"
        }
      ],
      "name": "getUserPermissionsForaDevice",
      "outputs": [
        {
          "name": "",
          "type": "string"
        }
      ],
      "payable": false,
      "stateMutability": "nonpayable",
      "type": "function"
    },
    {
      "constant": false,
      "inputs": [
        {
          "name": "devAddress",
          "type": "address"
        },
        {
          "name": "userAddress",
          "type": "address"
        },
        {
          "name": "permission",
          "type": "string"
        }
      ],
      "name": "changePermission",
      "outputs": [],
      "payable": false,
      "stateMutability": "nonpayable",
      "type": "function"
    },
    {
      "constant": false,
      "inputs": [
        {
          "name": "devAddress",
          "type": "address"
        }
      ],
      "name": "addDeviceToUser",
      "outputs": [],
      "payable": false,
      "stateMutability": "nonpayable",
      "type": "function"
    },
    {
      "constant": false,
      "inputs": [],
      "name": "getUsersDevices",
      "outputs": [
        {
          "name": "",
          "type": "address[]"
        }
      ],
      "payable": false,
      "stateMutability": "nonpayable",
      "type": "function"
    }
  ],
  "bytecode": "0x60806040526040805190810160405280600d81526020017f4e6f7420417661696c61626c6500000000000000000000000000000000000000815250600190805190602001906200005192919062000066565b503480156200005f57600080fd5b5062000115565b828054600181600116156101000203166002900490600052602060002090601f016020900481019282601f10620000a957805160ff1916838001178555620000da565b82800160010185558215620000da579182015b82811115620000d9578251825591602001919060010190620000bc565b5b509050620000e99190620000ed565b5090565b6200011291905b808211156200010e576000816000905550600101620000f4565b5090565b90565b61124580620001256000396000f30060806040526004361061008e576000357c0100000000000000000000000000000000000000000000000000000000900463ffffffff16806323e4f1be146100935780634517d99b1461013c578063497f08b21461021857806349f5db2414610284578063ce784cca14610314578063d175a0a714610357578063e024412214610400578063e99c9bb21461046d575b600080fd5b34801561009f57600080fd5b5061013a600480360381019080803573ffffffffffffffffffffffffffffffffffffffff169060200190929190803573ffffffffffffffffffffffffffffffffffffffff169060200190929190803590602001908201803590602001908080601f01602080910402602001604051908101604052809392919081815260200183838082843782019150505050505091929192905050506104b0565b005b34801561014857600080fd5b5061019d600480360381019080803573ffffffffffffffffffffffffffffffffffffffff169060200190929190803573ffffffffffffffffffffffffffffffffffffffff1690602001909291905050506106e0565b6040518080602001828103825283818151815260200191508051906020019080838360005b838110156101dd5780820151818401526020810190506101c2565b50505050905090810190601f16801561020a5780820380516001836020036101000a031916815260200191505b509250505060405180910390f35b34801561022457600080fd5b5061022d610921565b6040518080602001828103825283818151815260200191508051906020019060200280838360005b83811015610270578082015181840152602081019050610255565b505050509050019250505060405180910390f35b34801561029057600080fd5b50610299610b04565b6040518080602001828103825283818151815260200191508051906020019080838360005b838110156102d95780820151818401526020810190506102be565b50505050905090810190601f1680156103065780820380516001836020036101000a031916815260200191505b509250505060405180910390f35b34801561032057600080fd5b50610355600480360381019080803573ffffffffffffffffffffffffffffffffffffffff169060200190929190505050610ba2565b005b34801561036357600080fd5b506103fe600480360381019080803590602001908201803590602001908080601f0160208091040260200160405190810160405280939291908181526020018383808284378201915050505050509192919290803573ffffffffffffffffffffffffffffffffffffffff169060200190929190803573ffffffffffffffffffffffffffffffffffffffff169060200190929190505050610ce5565b005b34801561040c57600080fd5b5061042b60048036038101908080359060200190929190505050610e4e565b604051808273ffffffffffffffffffffffffffffffffffffffff1673ffffffffffffffffffffffffffffffffffffffff16815260200191505060405180910390f35b34801561047957600080fd5b506104ae600480360381019080803573ffffffffffffffffffffffffffffffffffffffff169060200190929190505050610e8c565b005b60008090505b600260008573ffffffffffffffffffffffffffffffffffffffff1673ffffffffffffffffffffffffffffffffffffffff168152602001908152602001600020600101805490508110156106da578273ffffffffffffffffffffffffffffffffffffffff16600260008673ffffffffffffffffffffffffffffffffffffffff1673ffffffffffffffffffffffffffffffffffffffff1681526020019081526020016000206001018281548110151561056957fe5b906000526020600020906003020160000160009054906101000a900473ffffffffffffffffffffffffffffffffffffffff1673ffffffffffffffffffffffffffffffffffffffff1614156106cd5781600260008673ffffffffffffffffffffffffffffffffffffffff1673ffffffffffffffffffffffffffffffffffffffff1681526020019081526020016000206001018281548110151561060757fe5b9060005260206000209060030201600201908051906020019061062b929190610fe4565b507f2b68a98a62bf0ac0fbbceb7d71d471f839916841f7b8d45844dbe7a986450231826040518080602001828103825283818151815260200191508051906020019080838360005b8381101561068e578082015181840152602081019050610673565b50505050905090810190601f1680156106bb5780820380516001836020036101000a031916815260200191505b509250505060405180910390a16106da565b80806001019150506104b6565b50505050565b606060008090505b600260008573ffffffffffffffffffffffffffffffffffffffff1673ffffffffffffffffffffffffffffffffffffffff1681526020019081526020016000206001018054905081101561087d578273ffffffffffffffffffffffffffffffffffffffff16600260008673ffffffffffffffffffffffffffffffffffffffff1673ffffffffffffffffffffffffffffffffffffffff1681526020019081526020016000206001018281548110151561079b57fe5b906000526020600020906003020160000160009054906101000a900473ffffffffffffffffffffffffffffffffffffffff1673ffffffffffffffffffffffffffffffffffffffff16141561087057600260008573ffffffffffffffffffffffffffffffffffffffff1673ffffffffffffffffffffffffffffffffffffffff1681526020019081526020016000206001018181548110151561083857fe5b90600052602060002090600302016002016001908054600181600116156101000203166002900461086a929190611064565b5061087d565b80806001019150506106e8565b60018054600181600116156101000203166002900480601f0160208091040260200160405190810160405280929190818152602001828054600181600116156101000203166002900480156109135780601f106108e857610100808354040283529160200191610913565b820191906000526020600020905b8154815290600101906020018083116108f657829003601f168201915b505050505091505092915050565b6060600080600061093291906110eb565b600090505b600360003373ffffffffffffffffffffffffffffffffffffffff1673ffffffffffffffffffffffffffffffffffffffff16815260200190815260200160002060000180549050811015610a77576000600360003373ffffffffffffffffffffffffffffffffffffffff1673ffffffffffffffffffffffffffffffffffffffff168152602001908152602001600020600001828154811015156109d557fe5b906000526020600020906002020160000160009054906101000a900473ffffffffffffffffffffffffffffffffffffffff1690806001815401808255809150509060018203906000526020600020016000909192909190916101000a81548173ffffffffffffffffffffffffffffffffffffffff021916908373ffffffffffffffffffffffffffffffffffffffff160217905550508080600101915050610937565b6000805480602002602001604051908101604052809291908181526020018280548015610af957602002820191906000526020600020905b8160009054906101000a900473ffffffffffffffffffffffffffffffffffffffff1673ffffffffffffffffffffffffffffffffffffffff1681526020019060010190808311610aaf575b505050505091505090565b60018054600181600116156101000203166002900480601f016020809104026020016040519081016040528092919081815260200182805460018160011615610100020316600290048015610b9a5780601f10610b6f57610100808354040283529160200191610b9a565b820191906000526020600020905b815481529060010190602001808311610b7d57829003601f168201915b505050505081565b610baa61110c565b60408051908101604052808373ffffffffffffffffffffffffffffffffffffffff1681526020016040805190810160405280600a81526020017f526561642f5772697465000000000000000000000000000000000000000000008152508152509050600360003373ffffffffffffffffffffffffffffffffffffffff1673ffffffffffffffffffffffffffffffffffffffff168152602001908152602001600020600001819080600181540180825580915050906001820390600052602060002090600202016000909192909190915060008201518160000160006101000a81548173ffffffffffffffffffffffffffffffffffffffff021916908373ffffffffffffffffffffffffffffffffffffffff1602179055506020820151816001019080519060200190610cdd92919061113c565b505050505050565b610ced6111bc565b6060604051908101604052808373ffffffffffffffffffffffffffffffffffffffff1681526020016040805190810160405280600481526020017f6e756c6c000000000000000000000000000000000000000000000000000000008152508152602001858152509050600260008473ffffffffffffffffffffffffffffffffffffffff1673ffffffffffffffffffffffffffffffffffffffff168152602001908152602001600020600101819080600181540180825580915050906001820390600052602060002090600302016000909192909190915060008201518160000160006101000a81548173ffffffffffffffffffffffffffffffffffffffff021916908373ffffffffffffffffffffffffffffffffffffffff1602179055506020820151816001019080519060200190610e2792919061113c565b506040820151816002019080519060200190610e4492919061113c565b5050505050505050565b600081815481101515610e5d57fe5b906000526020600020016000915054906101000a900473ffffffffffffffffffffffffffffffffffffffff1681565b6000806000610e9b91906110eb565b600090505b600260008373ffffffffffffffffffffffffffffffffffffffff1673ffffffffffffffffffffffffffffffffffffffff16815260200190815260200160002060010180549050811015610fe0576000600260008473ffffffffffffffffffffffffffffffffffffffff1673ffffffffffffffffffffffffffffffffffffffff16815260200190815260200160002060010182815481101515610f3e57fe5b906000526020600020906003020160000160009054906101000a900473ffffffffffffffffffffffffffffffffffffffff1690806001815401808255809150509060018203906000526020600020016000909192909190916101000a81548173ffffffffffffffffffffffffffffffffffffffff021916908373ffffffffffffffffffffffffffffffffffffffff160217905550508080600101915050610ea0565b5050565b828054600181600116156101000203166002900490600052602060002090601f016020900481019282601f1061102557805160ff1916838001178555611053565b82800160010185558215611053579182015b82811115611052578251825591602001919060010190611037565b5b50905061106091906111f4565b5090565b828054600181600116156101000203166002900490600052602060002090601f016020900481019282601f1061109d57805485556110da565b828001600101855582156110da57600052602060002091601f016020900482015b828111156110d95782548255916001019190600101906110be565b5b5090506110e791906111f4565b5090565b508054600082559060005260206000209081019061110991906111f4565b50565b6040805190810160405280600073ffffffffffffffffffffffffffffffffffffffff168152602001606081525090565b828054600181600116156101000203166002900490600052602060002090601f016020900481019282601f1061117d57805160ff19168380011785556111ab565b828001600101855582156111ab579182015b828111156111aa57825182559160200191906001019061118f565b5b5090506111b891906111f4565b5090565b606060405190810160405280600073ffffffffffffffffffffffffffffffffffffffff16815260200160608152602001606081525090565b61121691905b808211156112125760008160009055506001016111fa565b5090565b905600a165627a7a7230582045c9d751b5b9db628952f83a7d0d6b5e6b0d1cc01af11c9ce8af174dfe356a510029",
  "source": "pragma solidity ^0.4.24;\r\n\r\ncontract IotSecurity {\r\n    \r\n    address [] public user_arr;\r\n    string public user_permission =\"Not Available\";\r\n    \r\n    \r\n    struct deviceUserInfo {\r\n        address user;\r\n        string data;\r\n        string permission;\r\n    }\r\n    \r\n    \r\n    struct user_info {\r\n        address device;\r\n        string permission;\r\n    }\r\n    \r\n    \r\n    struct user {\r\n        user_info [] users_devices;\r\n    }\r\n    \r\n    \r\n    struct device {\r\n        address owner;\r\n        deviceUserInfo [] DeviceInfo;\r\n    }\r\n    \r\n    \r\n    event e_Permission (string permission);\r\n    \r\n    \r\n    mapping(address => device) devices;\r\n    \r\n    \r\n    mapping(address => user) users;\r\n    \r\n    function addUsersToDevice (string permission, address deviceAddress, address userAddress) public {\r\n        deviceUserInfo memory obj = deviceUserInfo({\r\n            user: userAddress,\r\n            data: \"null\",\r\n            permission: permission\r\n        });\r\n\r\n        devices[deviceAddress].DeviceInfo.push(obj);\r\n    }\r\n\r\n    function getUsersFromDevice (address devAddress) public {\r\n        delete user_arr;\r\n        for (uint i =0 ; i < devices[devAddress].DeviceInfo.length ; i++){\r\n            user_arr.push(devices[devAddress].DeviceInfo[i].user);\r\n        }\r\n        // return user_arr;\r\n    }\r\n    \r\n    function getUserPermissionsForaDevice (address devAddress, address userAddress) public returns (string){\r\n        for (uint i =0 ; i < devices[devAddress].DeviceInfo.length ; i++){\r\n            if (devices[devAddress].DeviceInfo[i].user == userAddress){\r\n                user_permission = devices[devAddress].DeviceInfo[i].permission;\r\n                break;\r\n            }\r\n        }\r\n        return user_permission;\r\n    }\r\n    \r\n    function changePermission (address devAddress, address userAddress, string permission) public {\r\n        for (uint i =0 ; i < devices[devAddress].DeviceInfo.length ; i++){\r\n            if (devices[devAddress].DeviceInfo[i].user == userAddress){\r\n                devices[devAddress].DeviceInfo[i].permission = permission;\r\n                emit e_Permission(permission);\r\n                break;\r\n            }\r\n        }\r\n    }\r\n    \r\n    function addDeviceToUser (address devAddress) public {\r\n        user_info memory obj = user_info({\r\n            device: devAddress,\r\n            permission: \"Read/Write\"\r\n        });\r\n        users[msg.sender].users_devices.push(obj);\r\n    }\r\n    \r\n    \r\n    function getUsersDevices() public returns (address []){\r\n        delete user_arr;\r\n        for (uint i = 0; i < users[msg.sender].users_devices.length; i++){\r\n            user_arr.push(users[msg.sender].users_devices[i].device);\r\n        }\r\n        return user_arr;\r\n    }\r\n    \r\n}",
  "sourcePath": "E:\\CDAP\\solidity\\IOT_SECURITY_BLOCKCHAIN\\contracts\\IotSecurity.sol",
  "compiler": {
    "name": "solc",
    "version": "0.4.24+commit.e67f0147.Emscripten.clang"
  },
  "schemaVersion": "2.0.0",
  "updatedAt": "2018-06-22T05:18:09.255Z"
}