{
  "contractName": "IotSecurity",
  "abi": [
    {
      "constant": true,
      "inputs": [],
      "name": "user_permission",
      "outputs": [
        {
          "name": "",
          "type": "string"
        }
      ],
      "payable": false,
      "stateMutability": "view",
      "type": "function"
    },
    {
      "constant": true,
      "inputs": [],
      "name": "user_arr_length",
      "outputs": [
        {
          "name": "",
          "type": "uint256"
        }
      ],
      "payable": false,
      "stateMutability": "view",
      "type": "function"
    },
    {
      "constant": true,
      "inputs": [
        {
          "name": "",
          "type": "uint256"
        }
      ],
      "name": "user_arr",
      "outputs": [
        {
          "name": "",
          "type": "address"
        }
      ],
      "payable": false,
      "stateMutability": "view",
      "type": "function"
    },
    {
      "anonymous": false,
      "inputs": [
        {
          "indexed": false,
          "name": "permission",
          "type": "string"
        }
      ],
      "name": "e_Permission",
      "type": "event"
    },
    {
      "constant": false,
      "inputs": [
        {
          "name": "permission",
          "type": "string"
        },
        {
          "name": "deviceAddress",
          "type": "address"
        },
        {
          "name": "userAddress",
          "type": "address"
        }
      ],
      "name": "addUsersToDevice",
      "outputs": [],
      "payable": false,
      "stateMutability": "nonpayable",
      "type": "function"
    },
    {
      "constant": false,
      "inputs": [
        {
          "name": "devAddress",
          "type": "address"
        }
      ],
      "name": "getUsersFromDevice",
      "outputs": [],
      "payable": false,
      "stateMutability": "nonpayable",
      "type": "function"
    },
    {
      "constant": false,
      "inputs": [
        {
          "name": "devAddress",
          "type": "address"
        },
        {
          "name": "userAddress",
          "type": "address"
        }
      ],
      "name": "getUserPermissionsForaDevice",
      "outputs": [],
      "payable": false,
      "stateMutability": "nonpayable",
      "type": "function"
    },
    {
      "constant": false,
      "inputs": [
        {
          "name": "devAddress",
          "type": "address"
        },
        {
          "name": "userAddress",
          "type": "address"
        },
        {
          "name": "permission",
          "type": "string"
        }
      ],
      "name": "changePermission",
      "outputs": [],
      "payable": false,
      "stateMutability": "nonpayable",
      "type": "function"
    },
    {
      "constant": false,
      "inputs": [
        {
          "name": "devAddress",
          "type": "address"
        }
      ],
      "name": "addDeviceToUser",
      "outputs": [],
      "payable": false,
      "stateMutability": "nonpayable",
      "type": "function"
    },
    {
      "constant": false,
      "inputs": [],
      "name": "getUsersDevices",
      "outputs": [],
      "payable": false,
      "stateMutability": "nonpayable",
      "type": "function"
    }
  ],
  "bytecode": "0x608060405260006001556040805190810160405280600d81526020017f4e6f7420417661696c61626c650000000000000000000000000000000000000081525060029080519060200190620000569291906200006b565b503480156200006457600080fd5b506200011a565b828054600181600116156101000203166002900490600052602060002090601f016020900481019282601f10620000ae57805160ff1916838001178555620000df565b82800160010185558215620000df579182015b82811115620000de578251825591602001919060010190620000c1565b5b509050620000ee9190620000f2565b5090565b6200011791905b8082111562000113576000816000905550600101620000f9565b5090565b90565b61114a806200012a6000396000f300608060405260043610610099576000357c0100000000000000000000000000000000000000000000000000000000900463ffffffff16806323e4f1be1461009e5780634517d99b14610147578063497f08b2146101aa57806349f5db24146101c1578063939e7d2814610251578063ce784cca1461027c578063d175a0a7146102bf578063e024412214610368578063e99c9bb2146103d5575b600080fd5b3480156100aa57600080fd5b50610145600480360381019080803573ffffffffffffffffffffffffffffffffffffffff169060200190929190803573ffffffffffffffffffffffffffffffffffffffff169060200190929190803590602001908201803590602001908080601f0160208091040260200160405190810160405280939291908181526020018383808284378201915050505050509192919290505050610418565b005b34801561015357600080fd5b506101a8600480360381019080803573ffffffffffffffffffffffffffffffffffffffff169060200190929190803573ffffffffffffffffffffffffffffffffffffffff169060200190929190505050610648565b005b3480156101b657600080fd5b506101bf610835565b005b3480156101cd57600080fd5b506101d66109ef565b6040518080602001828103825283818151815260200191508051906020019080838360005b838110156102165780820151818401526020810190506101fb565b50505050905090810190601f1680156102435780820380516001836020036101000a031916815260200191505b509250505060405180910390f35b34801561025d57600080fd5b50610266610a8d565b6040518082815260200191505060405180910390f35b34801561028857600080fd5b506102bd600480360381019080803573ffffffffffffffffffffffffffffffffffffffff169060200190929190505050610a93565b005b3480156102cb57600080fd5b50610366600480360381019080803590602001908201803590602001908080601f0160208091040260200160405190810160405280939291908181526020018383808284378201915050505050509192919290803573ffffffffffffffffffffffffffffffffffffffff169060200190929190803573ffffffffffffffffffffffffffffffffffffffff169060200190929190505050610bd6565b005b34801561037457600080fd5b5061039360048036038101908080359060200190929190505050610d3f565b604051808273ffffffffffffffffffffffffffffffffffffffff1673ffffffffffffffffffffffffffffffffffffffff16815260200191505060405180910390f35b3480156103e157600080fd5b50610416600480360381019080803573ffffffffffffffffffffffffffffffffffffffff169060200190929190505050610d7d565b005b60008090505b600360008573ffffffffffffffffffffffffffffffffffffffff1673ffffffffffffffffffffffffffffffffffffffff16815260200190815260200160002060010180549050811015610642578273ffffffffffffffffffffffffffffffffffffffff16600360008673ffffffffffffffffffffffffffffffffffffffff1673ffffffffffffffffffffffffffffffffffffffff168152602001908152602001600020600101828154811015156104d157fe5b906000526020600020906003020160000160009054906101000a900473ffffffffffffffffffffffffffffffffffffffff1673ffffffffffffffffffffffffffffffffffffffff1614156106355781600360008673ffffffffffffffffffffffffffffffffffffffff1673ffffffffffffffffffffffffffffffffffffffff1681526020019081526020016000206001018281548110151561056f57fe5b90600052602060002090600302016002019080519060200190610593929190610ee9565b507f2b68a98a62bf0ac0fbbceb7d71d471f839916841f7b8d45844dbe7a986450231826040518080602001828103825283818151815260200191508051906020019080838360005b838110156105f65780820151818401526020810190506105db565b50505050905090810190601f1680156106235780820380516001836020036101000a031916815260200191505b509250505060405180910390a1610642565b808060010191505061041e565b50505050565b60006040805190810160405280600d81526020017f4e6f7420417661696c61626c650000000000000000000000000000000000000081525060029080519060200190610695929190610ee9565b50600090505b600360008473ffffffffffffffffffffffffffffffffffffffff1673ffffffffffffffffffffffffffffffffffffffff16815260200190815260200160002060010180549050811015610830578173ffffffffffffffffffffffffffffffffffffffff16600360008573ffffffffffffffffffffffffffffffffffffffff1673ffffffffffffffffffffffffffffffffffffffff1681526020019081526020016000206001018281548110151561074e57fe5b906000526020600020906003020160000160009054906101000a900473ffffffffffffffffffffffffffffffffffffffff1673ffffffffffffffffffffffffffffffffffffffff16141561082357600360008473ffffffffffffffffffffffffffffffffffffffff1673ffffffffffffffffffffffffffffffffffffffff168152602001908152602001600020600101818154811015156107eb57fe5b90600052602060002090600302016002016002908054600181600116156101000203166002900461081d929190610f69565b50610830565b808060010191505061069b565b505050565b60008060006108449190610ff0565b60006001819055506000600460003373ffffffffffffffffffffffffffffffffffffffff1673ffffffffffffffffffffffffffffffffffffffff1681526020019081526020016000206000018054905011156109ec57600090505b600460003373ffffffffffffffffffffffffffffffffffffffff1673ffffffffffffffffffffffffffffffffffffffff168152602001908152602001600020600001805490508110156109eb576000600460003373ffffffffffffffffffffffffffffffffffffffff1673ffffffffffffffffffffffffffffffffffffffff1681526020019081526020016000206000018281548110151561093d57fe5b906000526020600020906002020160000160009054906101000a900473ffffffffffffffffffffffffffffffffffffffff1690806001815401808255809150509060018203906000526020600020016000909192909190916101000a81548173ffffffffffffffffffffffffffffffffffffffff021916908373ffffffffffffffffffffffffffffffffffffffff16021790555050600080549050600181905550808060010191505061089f565b5b50565b60028054600181600116156101000203166002900480601f016020809104026020016040519081016040528092919081815260200182805460018160011615610100020316600290048015610a855780601f10610a5a57610100808354040283529160200191610a85565b820191906000526020600020905b815481529060010190602001808311610a6857829003601f168201915b505050505081565b60015481565b610a9b611011565b60408051908101604052808373ffffffffffffffffffffffffffffffffffffffff1681526020016040805190810160405280600a81526020017f526561642f5772697465000000000000000000000000000000000000000000008152508152509050600460003373ffffffffffffffffffffffffffffffffffffffff1673ffffffffffffffffffffffffffffffffffffffff168152602001908152602001600020600001819080600181540180825580915050906001820390600052602060002090600202016000909192909190915060008201518160000160006101000a81548173ffffffffffffffffffffffffffffffffffffffff021916908373ffffffffffffffffffffffffffffffffffffffff1602179055506020820151816001019080519060200190610bce929190611041565b505050505050565b610bde6110c1565b6060604051908101604052808373ffffffffffffffffffffffffffffffffffffffff1681526020016040805190810160405280600481526020017f6e756c6c000000000000000000000000000000000000000000000000000000008152508152602001858152509050600360008473ffffffffffffffffffffffffffffffffffffffff1673ffffffffffffffffffffffffffffffffffffffff168152602001908152602001600020600101819080600181540180825580915050906001820390600052602060002090600302016000909192909190915060008201518160000160006101000a81548173ffffffffffffffffffffffffffffffffffffffff021916908373ffffffffffffffffffffffffffffffffffffffff1602179055506020820151816001019080519060200190610d18929190611041565b506040820151816002019080519060200190610d35929190611041565b5050505050505050565b600081815481101515610d4e57fe5b906000526020600020016000915054906101000a900473ffffffffffffffffffffffffffffffffffffffff1681565b6000806000610d8c9190610ff0565b6000600181905550600090505b600360008373ffffffffffffffffffffffffffffffffffffffff1673ffffffffffffffffffffffffffffffffffffffff16815260200190815260200160002060010180549050811015610ee5576000600360008473ffffffffffffffffffffffffffffffffffffffff1673ffffffffffffffffffffffffffffffffffffffff16815260200190815260200160002060010182815481101515610e3757fe5b906000526020600020906003020160000160009054906101000a900473ffffffffffffffffffffffffffffffffffffffff1690806001815401808255809150509060018203906000526020600020016000909192909190916101000a81548173ffffffffffffffffffffffffffffffffffffffff021916908373ffffffffffffffffffffffffffffffffffffffff160217905550506000805490506001819055508080600101915050610d99565b5050565b828054600181600116156101000203166002900490600052602060002090601f016020900481019282601f10610f2a57805160ff1916838001178555610f58565b82800160010185558215610f58579182015b82811115610f57578251825591602001919060010190610f3c565b5b509050610f6591906110f9565b5090565b828054600181600116156101000203166002900490600052602060002090601f016020900481019282601f10610fa25780548555610fdf565b82800160010185558215610fdf57600052602060002091601f016020900482015b82811115610fde578254825591600101919060010190610fc3565b5b509050610fec91906110f9565b5090565b508054600082559060005260206000209081019061100e91906110f9565b50565b6040805190810160405280600073ffffffffffffffffffffffffffffffffffffffff168152602001606081525090565b828054600181600116156101000203166002900490600052602060002090601f016020900481019282601f1061108257805160ff19168380011785556110b0565b828001600101855582156110b0579182015b828111156110af578251825591602001919060010190611094565b5b5090506110bd91906110f9565b5090565b606060405190810160405280600073ffffffffffffffffffffffffffffffffffffffff16815260200160608152602001606081525090565b61111b91905b808211156111175760008160009055506001016110ff565b5090565b905600a165627a7a72305820185469b34a95838fca16ad0dfb00875a51d31253f945cac82868823af99c46c00029",
  "source": "pragma solidity ^0.4.24;\r\n\r\ncontract IotSecurity {\r\n    \r\n    address [] public user_arr;\r\n    uint public user_arr_length = 0;\r\n    string public user_permission =\"Not Available\";\r\n    \r\n    struct deviceUserInfo {\r\n        address user;\r\n        string data;\r\n        string permission;\r\n    }\r\n    \r\n    struct user_info {\r\n        address device;\r\n        string permission;\r\n    }\r\n    \r\n    struct user {\r\n        user_info [] users_devices;\r\n    }\r\n    \r\n    struct device {\r\n        address owner;\r\n        deviceUserInfo [] DeviceInfo;\r\n    }\r\n    \r\n    event e_Permission (string permission);\r\n    \r\n    mapping(address => device) devices;\r\n    \r\n    mapping(address => user) users;\r\n    \r\n    function addUsersToDevice (string permission, address deviceAddress, address userAddress) public {\r\n        deviceUserInfo memory obj = deviceUserInfo({\r\n            user: userAddress,\r\n            data: \"null\",\r\n            permission: permission\r\n        });\r\n\r\n        devices[deviceAddress].DeviceInfo.push(obj);\r\n    }\r\n\r\n    function getUsersFromDevice (address devAddress) public {\r\n        delete user_arr;\r\n        user_arr_length = 0;\r\n        for (uint i =0 ; i < devices[devAddress].DeviceInfo.length ; i++){\r\n            user_arr.push(devices[devAddress].DeviceInfo[i].user);\r\n            user_arr_length = user_arr.length;\r\n        }\r\n        // return user_arr;\r\n    }\r\n    \r\n    function getUserPermissionsForaDevice (address devAddress, address userAddress) public {\r\n        user_permission =\"Not Available\";\r\n        for (uint i =0 ; i < devices[devAddress].DeviceInfo.length ; i++){\r\n            if (devices[devAddress].DeviceInfo[i].user == userAddress){\r\n                user_permission = devices[devAddress].DeviceInfo[i].permission;\r\n                break;\r\n            }\r\n        }\r\n    }\r\n    \r\n    function changePermission (address devAddress, address userAddress, string permission) public {\r\n        for (uint i =0 ; i < devices[devAddress].DeviceInfo.length ; i++){\r\n            if (devices[devAddress].DeviceInfo[i].user == userAddress){\r\n                devices[devAddress].DeviceInfo[i].permission = permission;\r\n                emit e_Permission(permission);\r\n                break;\r\n            }\r\n        }\r\n    }\r\n    \r\n    function addDeviceToUser (address devAddress) public {\r\n        user_info memory obj = user_info({\r\n            device: devAddress,\r\n            permission: \"Read/Write\"\r\n        });\r\n        users[msg.sender].users_devices.push(obj);\r\n    }\r\n    \r\n    function getUsersDevices() public {\r\n        delete user_arr;\r\n        user_arr_length = 0;\r\n        if(users[msg.sender].users_devices.length>0){\r\n            for (uint i = 0; i < users[msg.sender].users_devices.length; i++){\r\n                user_arr.push(users[msg.sender].users_devices[i].device);\r\n                user_arr_length = user_arr.length;\r\n            }\r\n        }\r\n    }\r\n    \r\n}",
  "sourcePath": "E:\\CDAP\\solidity\\IOT_SECURITY_BLOCKCHAIN\\contracts\\IotSecurity.sol",
  "compiler": {
    "name": "solc",
    "version": "0.4.24+commit.e67f0147.Emscripten.clang"
  },
  "schemaVersion": "2.0.0",
  "updatedAt": "2018-06-24T09:08:24.338Z"
}