{
  "contractName": "IotSecurity",
  "abi": [
    {
      "constant": true,
      "inputs": [],
      "name": "user_permission",
      "outputs": [
        {
          "name": "",
          "type": "string"
        }
      ],
      "payable": false,
      "stateMutability": "view",
      "type": "function"
    },
    {
      "constant": true,
      "inputs": [],
      "name": "user_arr_length",
      "outputs": [
        {
          "name": "",
          "type": "uint256"
        }
      ],
      "payable": false,
      "stateMutability": "view",
      "type": "function"
    },
    {
      "constant": true,
      "inputs": [
        {
          "name": "",
          "type": "uint256"
        }
      ],
      "name": "user_arr",
      "outputs": [
        {
          "name": "",
          "type": "address"
        }
      ],
      "payable": false,
      "stateMutability": "view",
      "type": "function"
    },
    {
      "anonymous": false,
      "inputs": [
        {
          "indexed": false,
          "name": "permission",
          "type": "string"
        }
      ],
      "name": "e_Permission",
      "type": "event"
    },
    {
      "constant": false,
      "inputs": [
        {
          "name": "permission",
          "type": "string"
        },
        {
          "name": "deviceAddress",
          "type": "address"
        },
        {
          "name": "userAddress",
          "type": "address"
        }
      ],
      "name": "addUsersToDevice",
      "outputs": [],
      "payable": false,
      "stateMutability": "nonpayable",
      "type": "function"
    },
    {
      "constant": false,
      "inputs": [
        {
          "name": "devAddress",
          "type": "address"
        }
      ],
      "name": "getUsersFromDevice",
      "outputs": [],
      "payable": false,
      "stateMutability": "nonpayable",
      "type": "function"
    },
    {
      "constant": false,
      "inputs": [
        {
          "name": "devAddress",
          "type": "address"
        },
        {
          "name": "userAddress",
          "type": "address"
        }
      ],
      "name": "getUserPermissionsForaDevice",
      "outputs": [
        {
          "name": "",
          "type": "string"
        }
      ],
      "payable": false,
      "stateMutability": "nonpayable",
      "type": "function"
    },
    {
      "constant": false,
      "inputs": [
        {
          "name": "devAddress",
          "type": "address"
        },
        {
          "name": "userAddress",
          "type": "address"
        },
        {
          "name": "permission",
          "type": "string"
        }
      ],
      "name": "changePermission",
      "outputs": [],
      "payable": false,
      "stateMutability": "nonpayable",
      "type": "function"
    },
    {
      "constant": false,
      "inputs": [
        {
          "name": "devAddress",
          "type": "address"
        }
      ],
      "name": "addDeviceToUser",
      "outputs": [],
      "payable": false,
      "stateMutability": "nonpayable",
      "type": "function"
    },
    {
      "constant": false,
      "inputs": [],
      "name": "getUsersDevices",
      "outputs": [],
      "payable": false,
      "stateMutability": "nonpayable",
      "type": "function"
    }
  ],
  "bytecode": "0x608060405260006001556040805190810160405280600d81526020017f4e6f7420417661696c61626c650000000000000000000000000000000000000081525060029080519060200190620000569291906200006b565b503480156200006457600080fd5b506200011a565b828054600181600116156101000203166002900490600052602060002090601f016020900481019282601f10620000ae57805160ff1916838001178555620000df565b82800160010185558215620000df579182015b82811115620000de578251825591602001919060010190620000c1565b5b509050620000ee9190620000f2565b5090565b6200011791905b8082111562000113576000816000905550600101620000f9565b5090565b90565b6111fb806200012a6000396000f300608060405260043610610099576000357c0100000000000000000000000000000000000000000000000000000000900463ffffffff16806323e4f1be1461009e5780634517d99b14610147578063497f08b21461022357806349f5db241461023a578063939e7d28146102ca578063ce784cca146102f5578063d175a0a714610338578063e0244122146103e1578063e99c9bb21461044e575b600080fd5b3480156100aa57600080fd5b50610145600480360381019080803573ffffffffffffffffffffffffffffffffffffffff169060200190929190803573ffffffffffffffffffffffffffffffffffffffff169060200190929190803590602001908201803590602001908080601f0160208091040260200160405190810160405280939291908181526020018383808284378201915050505050509192919290505050610491565b005b34801561015357600080fd5b506101a8600480360381019080803573ffffffffffffffffffffffffffffffffffffffff169060200190929190803573ffffffffffffffffffffffffffffffffffffffff1690602001909291905050506106c1565b6040518080602001828103825283818151815260200191508051906020019080838360005b838110156101e85780820151818401526020810190506101cd565b50505050905090810190601f1680156102155780820380516001836020036101000a031916815260200191505b509250505060405180910390f35b34801561022f57600080fd5b50610238610902565b005b34801561024657600080fd5b5061024f610ab4565b6040518080602001828103825283818151815260200191508051906020019080838360005b8381101561028f578082015181840152602081019050610274565b50505050905090810190601f1680156102bc5780820380516001836020036101000a031916815260200191505b509250505060405180910390f35b3480156102d657600080fd5b506102df610b52565b6040518082815260200191505060405180910390f35b34801561030157600080fd5b50610336600480360381019080803573ffffffffffffffffffffffffffffffffffffffff169060200190929190505050610b58565b005b34801561034457600080fd5b506103df600480360381019080803590602001908201803590602001908080601f0160208091040260200160405190810160405280939291908181526020018383808284378201915050505050509192919290803573ffffffffffffffffffffffffffffffffffffffff169060200190929190803573ffffffffffffffffffffffffffffffffffffffff169060200190929190505050610c9b565b005b3480156103ed57600080fd5b5061040c60048036038101908080359060200190929190505050610e04565b604051808273ffffffffffffffffffffffffffffffffffffffff1673ffffffffffffffffffffffffffffffffffffffff16815260200191505060405180910390f35b34801561045a57600080fd5b5061048f600480360381019080803573ffffffffffffffffffffffffffffffffffffffff169060200190929190505050610e42565b005b60008090505b600360008573ffffffffffffffffffffffffffffffffffffffff1673ffffffffffffffffffffffffffffffffffffffff168152602001908152602001600020600101805490508110156106bb578273ffffffffffffffffffffffffffffffffffffffff16600360008673ffffffffffffffffffffffffffffffffffffffff1673ffffffffffffffffffffffffffffffffffffffff1681526020019081526020016000206001018281548110151561054a57fe5b906000526020600020906003020160000160009054906101000a900473ffffffffffffffffffffffffffffffffffffffff1673ffffffffffffffffffffffffffffffffffffffff1614156106ae5781600360008673ffffffffffffffffffffffffffffffffffffffff1673ffffffffffffffffffffffffffffffffffffffff168152602001908152602001600020600101828154811015156105e857fe5b9060005260206000209060030201600201908051906020019061060c929190610f9a565b507f2b68a98a62bf0ac0fbbceb7d71d471f839916841f7b8d45844dbe7a986450231826040518080602001828103825283818151815260200191508051906020019080838360005b8381101561066f578082015181840152602081019050610654565b50505050905090810190601f16801561069c5780820380516001836020036101000a031916815260200191505b509250505060405180910390a16106bb565b8080600101915050610497565b50505050565b606060008090505b600360008573ffffffffffffffffffffffffffffffffffffffff1673ffffffffffffffffffffffffffffffffffffffff1681526020019081526020016000206001018054905081101561085e578273ffffffffffffffffffffffffffffffffffffffff16600360008673ffffffffffffffffffffffffffffffffffffffff1673ffffffffffffffffffffffffffffffffffffffff1681526020019081526020016000206001018281548110151561077c57fe5b906000526020600020906003020160000160009054906101000a900473ffffffffffffffffffffffffffffffffffffffff1673ffffffffffffffffffffffffffffffffffffffff16141561085157600360008573ffffffffffffffffffffffffffffffffffffffff1673ffffffffffffffffffffffffffffffffffffffff1681526020019081526020016000206001018181548110151561081957fe5b90600052602060002090600302016002016002908054600181600116156101000203166002900461084b92919061101a565b5061085e565b80806001019150506106c9565b60028054600181600116156101000203166002900480601f0160208091040260200160405190810160405280929190818152602001828054600181600116156101000203166002900480156108f45780601f106108c9576101008083540402835291602001916108f4565b820191906000526020600020905b8154815290600101906020018083116108d757829003601f168201915b505050505091505092915050565b600080600061091191906110a1565b6000600460003373ffffffffffffffffffffffffffffffffffffffff1673ffffffffffffffffffffffffffffffffffffffff168152602001908152602001600020600001805490501115610ab157600090505b600460003373ffffffffffffffffffffffffffffffffffffffff1673ffffffffffffffffffffffffffffffffffffffff16815260200190815260200160002060000180549050811015610ab0576000600460003373ffffffffffffffffffffffffffffffffffffffff1673ffffffffffffffffffffffffffffffffffffffff16815260200190815260200160002060000182815481101515610a0257fe5b906000526020600020906002020160000160009054906101000a900473ffffffffffffffffffffffffffffffffffffffff1690806001815401808255809150509060018203906000526020600020016000909192909190916101000a81548173ffffffffffffffffffffffffffffffffffffffff021916908373ffffffffffffffffffffffffffffffffffffffff160217905550506000805490506001819055508080600101915050610964565b5b50565b60028054600181600116156101000203166002900480601f016020809104026020016040519081016040528092919081815260200182805460018160011615610100020316600290048015610b4a5780601f10610b1f57610100808354040283529160200191610b4a565b820191906000526020600020905b815481529060010190602001808311610b2d57829003601f168201915b505050505081565b60015481565b610b606110c2565b60408051908101604052808373ffffffffffffffffffffffffffffffffffffffff1681526020016040805190810160405280600a81526020017f526561642f5772697465000000000000000000000000000000000000000000008152508152509050600460003373ffffffffffffffffffffffffffffffffffffffff1673ffffffffffffffffffffffffffffffffffffffff168152602001908152602001600020600001819080600181540180825580915050906001820390600052602060002090600202016000909192909190915060008201518160000160006101000a81548173ffffffffffffffffffffffffffffffffffffffff021916908373ffffffffffffffffffffffffffffffffffffffff1602179055506020820151816001019080519060200190610c939291906110f2565b505050505050565b610ca3611172565b6060604051908101604052808373ffffffffffffffffffffffffffffffffffffffff1681526020016040805190810160405280600481526020017f6e756c6c000000000000000000000000000000000000000000000000000000008152508152602001858152509050600360008473ffffffffffffffffffffffffffffffffffffffff1673ffffffffffffffffffffffffffffffffffffffff168152602001908152602001600020600101819080600181540180825580915050906001820390600052602060002090600302016000909192909190915060008201518160000160006101000a81548173ffffffffffffffffffffffffffffffffffffffff021916908373ffffffffffffffffffffffffffffffffffffffff1602179055506020820151816001019080519060200190610ddd9291906110f2565b506040820151816002019080519060200190610dfa9291906110f2565b5050505050505050565b600081815481101515610e1357fe5b906000526020600020016000915054906101000a900473ffffffffffffffffffffffffffffffffffffffff1681565b6000806000610e5191906110a1565b600090505b600360008373ffffffffffffffffffffffffffffffffffffffff1673ffffffffffffffffffffffffffffffffffffffff16815260200190815260200160002060010180549050811015610f96576000600360008473ffffffffffffffffffffffffffffffffffffffff1673ffffffffffffffffffffffffffffffffffffffff16815260200190815260200160002060010182815481101515610ef457fe5b906000526020600020906003020160000160009054906101000a900473ffffffffffffffffffffffffffffffffffffffff1690806001815401808255809150509060018203906000526020600020016000909192909190916101000a81548173ffffffffffffffffffffffffffffffffffffffff021916908373ffffffffffffffffffffffffffffffffffffffff160217905550508080600101915050610e56565b5050565b828054600181600116156101000203166002900490600052602060002090601f016020900481019282601f10610fdb57805160ff1916838001178555611009565b82800160010185558215611009579182015b82811115611008578251825591602001919060010190610fed565b5b50905061101691906111aa565b5090565b828054600181600116156101000203166002900490600052602060002090601f016020900481019282601f106110535780548555611090565b8280016001018555821561109057600052602060002091601f016020900482015b8281111561108f578254825591600101919060010190611074565b5b50905061109d91906111aa565b5090565b50805460008255906000526020600020908101906110bf91906111aa565b50565b6040805190810160405280600073ffffffffffffffffffffffffffffffffffffffff168152602001606081525090565b828054600181600116156101000203166002900490600052602060002090601f016020900481019282601f1061113357805160ff1916838001178555611161565b82800160010185558215611161579182015b82811115611160578251825591602001919060010190611145565b5b50905061116e91906111aa565b5090565b606060405190810160405280600073ffffffffffffffffffffffffffffffffffffffff16815260200160608152602001606081525090565b6111cc91905b808211156111c85760008160009055506001016111b0565b5090565b905600a165627a7a723058204e9f4074e0655a754bbea8738a32b3cd16645ed9a0e7e861d838b5c6b46eeb510029",
  "source": "pragma solidity ^0.4.24;\r\n\r\ncontract IotSecurity {\r\n    \r\n    address [] public user_arr;\r\n    uint public user_arr_length = 0;\r\n    string public user_permission =\"Not Available\";\r\n    \r\n    struct deviceUserInfo {\r\n        address user;\r\n        string data;\r\n        string permission;\r\n    }\r\n    \r\n    struct user_info {\r\n        address device;\r\n        string permission;\r\n    }\r\n    \r\n    struct user {\r\n        user_info [] users_devices;\r\n    }\r\n    \r\n    struct device {\r\n        address owner;\r\n        deviceUserInfo [] DeviceInfo;\r\n    }\r\n    \r\n    event e_Permission (string permission);\r\n    \r\n    mapping(address => device) devices;\r\n    \r\n    mapping(address => user) users;\r\n    \r\n    function addUsersToDevice (string permission, address deviceAddress, address userAddress) public {\r\n        deviceUserInfo memory obj = deviceUserInfo({\r\n            user: userAddress,\r\n            data: \"null\",\r\n            permission: permission\r\n        });\r\n\r\n        devices[deviceAddress].DeviceInfo.push(obj);\r\n    }\r\n\r\n    function getUsersFromDevice (address devAddress) public {\r\n        delete user_arr;\r\n        for (uint i =0 ; i < devices[devAddress].DeviceInfo.length ; i++){\r\n            user_arr.push(devices[devAddress].DeviceInfo[i].user);\r\n        }\r\n        // return user_arr;\r\n    }\r\n    \r\n    function getUserPermissionsForaDevice (address devAddress, address userAddress) public returns (string){\r\n        for (uint i =0 ; i < devices[devAddress].DeviceInfo.length ; i++){\r\n            if (devices[devAddress].DeviceInfo[i].user == userAddress){\r\n                user_permission = devices[devAddress].DeviceInfo[i].permission;\r\n                break;\r\n            }\r\n        }\r\n        return user_permission;\r\n    }\r\n    \r\n    function changePermission (address devAddress, address userAddress, string permission) public {\r\n        for (uint i =0 ; i < devices[devAddress].DeviceInfo.length ; i++){\r\n            if (devices[devAddress].DeviceInfo[i].user == userAddress){\r\n                devices[devAddress].DeviceInfo[i].permission = permission;\r\n                emit e_Permission(permission);\r\n                break;\r\n            }\r\n        }\r\n    }\r\n    \r\n    function addDeviceToUser (address devAddress) public {\r\n        user_info memory obj = user_info({\r\n            device: devAddress,\r\n            permission: \"Read/Write\"\r\n        });\r\n        users[msg.sender].users_devices.push(obj);\r\n    }\r\n    \r\n    function getUsersDevices() public {\r\n        delete user_arr;\r\n        if(users[msg.sender].users_devices.length>0){\r\n            for (uint i = 0; i < users[msg.sender].users_devices.length; i++){\r\n                user_arr.push(users[msg.sender].users_devices[i].device);\r\n                user_arr_length = user_arr.length;\r\n            }\r\n        }\r\n    }\r\n    \r\n}",
  "sourcePath": "E:\\CDAP\\solidity\\IOT_SECURITY_BLOCKCHAIN\\contracts\\IotSecurity.sol",
  "compiler": {
    "name": "solc",
    "version": "0.4.24+commit.e67f0147.Emscripten.clang"
  },
  "schemaVersion": "2.0.0",
  "updatedAt": "2018-06-23T04:09:12.756Z"
}